:020000040800F2
:1000000080930020590200084B3E0008833400080A
:10001000493E000871140008B57E00080000000089
:10002000000000000000000000000000A101000826
:100030004115000800000000F5010008A15100086A
:1000400073020008730200087302000873020008BC
:1000500073020008730200087302000873020008AC
:10006000730200087302000873020008730200089C
:10007000730200087302000873020008730200088C
:10008000730200087302000873020008730200087C
:10009000730200087302000873020008730200086C
:1000A000730200087302000873020008730200085C
:1000B000B5540008C5540008D9540008730200085C
:1000C000730200087302000873020008730200083C
:1000D00073020008695C0008895C0008730200086C
:1000E000730200087302000873020008015500083B
:1000F000730200087302000873020008730200080C
:100100007302000873020008ED540008730200082F
:1001100073020008F15A0008730200087302000815
:1001200073020008730200087302000873020008DB
:1001300073020008730200087302000873020008CB
:1001400073020008730200087302000839430008B4
:1001500073020008730200087302000873020008AB
:10016000730200087302000873020008730200089B
:10017000730200087302000873020008730200088B
:100180007302000873020008DFF810D000F004FCCE
:1001900000480047CDA70008AFF3008080930020FF
:1001A0002A4B19680868B0E8F04F80F30988BFF35C
:1001B0006F8F4FF0000080F311887047000000003F
:1001C00006480068006880F3088862B661B6BFF32D
:1001D0004F8FBFF36F8F00DF00BF00BF08ED00E05F
:1001E000DFF80C00016841F470010160704700BF46
:1001F00088ED00E0EFF30980BFF36F8F134B1A68AF
:100200001EF0100F08BF20ED108A20E9F04F10609B
:1002100008B44FF0500080F31188BFF34F8FBFF345
:100220006F8F0CF095FD4FF0000080F3118808BC33
:1002300019680868B0E8F04F1EF0100F08BFB0EC66
:10024000108A80F30988BFF36F8F70474401002044
:10025000EFF30580704700000648804706480047D6
:10026000FEE7FEE7FEE7FEE7FEE7FEE7FEE7FEE766
:10027000FEE7FEE7B55100088901000840EA0103E6
:100280009B0703D009E008C9121F08C0042AFAD24C
:1002900003E011F8013B00F8013B521EF9D2704710
:1002A000D2B201E000F8012B491EFBD270470022B8
:1002B000F6E710B513460A4604461946FFF7F0FF65
:1002C000204610BD2DE9FE4F804681EA0300C00F95
:1002D0000C46009021F0004123F00045B8EB0200ED
:1002E000A94105D24046214690461C460B4602468F
:1002F00023F00040104347D0270DC7F30A00C3F393
:100300000A510290401A019040286BDAC3F313009F
:1003100040F4801B0098924620B10023D2EB030AE0
:1003200063EB0B0B01985946C0F14002504600F0B8
:10033000E5F906460D4650465946019A00F0EDF99A
:1003400010EB08006141002487EA115284EAE77348
:100350001A4340D0009A62B3019A012A4FEA075229
:1003600015DC001B61EB02014FF0004202EA07526C
:10037000CDE90042001C41F5801132462B4600F0C9
:1003800024FA03B0BDE8F08F40462146F9E7001B90
:1003900061EB0201001C41F5801300185B4120183D
:1003A000A2F5001747EB030140EAD570B6196D417D
:1003B00011E06D084FEA360645EAC0754FEA07526C
:1003C000001B61EB0201001C41F5801149084FEA56
:1003D00030000019514132462B4603B0BDE8F04FC2
:1003E00000F0E4B90098012240000023D0EB0202A3
:1003F00063EBE073009821464FEAE074B8EB00002D
:1004000061EB0401E9E783F000435BE781F0004121
:1004100058E72DE9FE4F81EA030404F0004421F07F
:10042000004100944FF0000B23F0004350EA010418
:100430005ED052EA03045BD0C3F30A54C1F30A55F9
:100440002C44A4F2F3340194A0FB0254C1F3130131
:1004500041F48011C3F3130343F4801301FB0244FE
:1004600000FB034E840A970A44EA815447EA835703
:10047000A4FB076802958D0A05FB07854FEA932CBC
:1004800004FB0C542705029D4FEA065847EA16372D
:10049000B5EB08056EEB070C870E920E47EA811745
:1004A00042EA8312A7FB0201B6EB0B0164EB0004E6
:1004B0002B0D43EA0C335E1844EB1C50DA465146D0
:1004C000E7FB0201C5F313044FEA0B3343EA14536D
:1004D0004FEA0432019C43EA0603A4F10C0402949F
:1004E000009CCDE900B400F070F903B0BDE8F08FD6
:1004F00000200146F9E72DE9F04D81EA030404F0FC
:10050000004B21F0004514464FF0000A23F0004153
:1005100050EA050220D054EA01021DD0C5F30A5763
:100520000246C5F31303C1F31300C1F30A5640F4A6
:10053000801543F48013A7EB0608101BD64608F27B
:10054000FD3873EB050002D308F1010801E09218B1
:100550005B41B8F1000F03DA00200146BDE8F08DE1
:1005600000204FF48011064684460EE0171B73EB03
:10057000050705D3121B63EB050306434CEA010C88
:1005800049084FEA300092185B4150EA0107EDD16B
:1005900052EA030012D082EA040083EA050108430C
:1005A00005D0101BAB4106D20122002306E0002239
:1005B0004FF0004302E06FF0010253101AEB060007
:1005C0004CEB085110EB0A0041EB0B01BDE8F04D7C
:1005D00000F0ECB80EB5C10F80EAE0700844CA071D
:1005E000002140F233438DE80E000A460B4600F02E
:1005F000ECF803B000BD0EB540F23341029100218A
:10060000CDE900110A460B4600F0DFF803B000BD4B
:1006100000F0004230F000400AD0C10D01F56071D9
:10062000C0F3160042EA0151C20840071143704767
:1006300000200146704701F0004330B421F0004132
:1006400050EA010206D00A0DA2F56072C1F313014F
:10065000002A02DC30BC00207047440F44EAC10489
:10066000C100E01830BC00EBC25000F068B830B5F3
:100670000B46014600202022012409E021FA02F560
:100680009D4205D303FA02F5491B04FA02F52844FA
:10069000151EA2F10102F1DC30BD2DE9F05F054627
:1006A000002092469B4688460646814640241BE031
:1006B000284641464746224600F080F953465A46AE
:1006C000C01A914110D311461846224600F016F880
:1006D0002D1A67EB01084F4622460120002100F049
:1006E0000DF817EB00094E41201EA4F10104DFDCD8
:1006F000484631462A464346BDE8F09F202A04DB9F
:10070000203A00FA02F1002070479140C2F1200324
:1007100020FA03F3194390407047202A06DBCB17D9
:10072000203A41FA02F043EAE07306E041FA02F3AC
:10073000D040C2F120029140084319467047002979
:10074000A8BF7047401C490008BF20F00100704757
:1007500010B4B0FA80FC00FA0CF050EA010404BFB7
:1007600010BC704749B1CCF1200421FA04F411FA0D
:100770000CF118BF012121430843A3EB0C01CB1D51
:100780004FEA00614FEA102042BF002010BC7047C2
:1007900000EBC35010440029A4BF10BC7047401C9C
:1007A000490008BF20F0010010BC704710B5141EAE
:1007B00073F1000408DA401C41F1000192185B411A
:1007C0001A4301D120F0010010BD2DE9F04D9246F1
:1007D0009B4611B1B1FA81F202E0B0FA80F2203208
:1007E0009046FFF78BFF04460F4640EA0A0041EAB5
:1007F0000B0153465A46084313D0114653EA0100F1
:1008000019D0C8F14002504600F0D8F805460E460F
:10081000504659464246FFF771FF084305D0012074
:1008200004E020463946BDE8F08D0020054346EA45
:10083000E0762C4337430A986305E40AA0EB0800EE
:100840000022FD0A44EA47540A3002D5002001463E
:10085000E9E7010510196941DDE908450019694119
:10086000BDE8F04DA2E770B521F0004303430CD082
:10087000C1F30A550024D5EB040564EB0403D61735
:10088000AD1AB34102DB0020014670BD201841EBD8
:10089000025170BD2DE9F04D00231A461B1A8A4102
:1008A00003DB00200146BDE8F08DC1F30A52C1F31D
:1008B000130141F480154FF0000BD10702D100184D
:1008C0006D41521E0027044640F2FF11384601EBED
:1008D000620A3E468046024600204FF4801100F036
:1008E0006DF8C2197141BB1846EB0100B4EB030C63
:1008F00075EB000C04D3E41A65EB000517460E46B1
:10090000241908F101006D4180463428E3DDF9190E
:1009100046EB0600091BA84103D24FF0FF321346F5
:1009200001E0002213461BEB070046EB0A51BDE82D
:10093000F04DFFF73BBFC1F30A52C1F3130140F280
:10094000FF3341F480119A4202DA002001467047D9
:1009500040F233439A42A2F2334202DC524200F0A8
:100960002DB8FFF7CBBE000030B5041E71F10004B6
:1009700004DB4FF00044404264EB0101141E73F1AC
:10098000000405DB1C464FF00043524263EB0403B6
:10099000994208BF904230BD064C074D06E0E06822
:1009A00040F0010394E8070098471034AC42F6D3B6
:1009B000FFF7EEFBA0F80008C0F80008202A04DBCF
:1009C000203A21FA02F00021704721FA02F3D040C8
:1009D000C2F12002914008431946704770B5C1F337
:1009E0000A5201F000450024C1F3130140F2FF3325
:1009F00041F480119A4201DA002070BD40F2334385
:100A00009A42A2F2334203DC5242FFF7D7FF00E0E2
:100A100090402C43F1D0404270BD70B58C1810F856
:100A2000015B15F0070301D110F8013B2A1106D133
:100A300010F8012B03E010F8016B01F8016B5B1E4D
:100A4000F9D12B0705D40023521E0DD401F8013B28
:100A5000FAE710F8013BCB1A921C03E013F8015B94
:100A600001F8015B521EF9D5A142D8D3002070BD18
:100A70000029816802D041F0010101E021F001016B
:100A800081607047084B10B5D3F8042307490A402A
:100A9000D0E900142143D0E902400443214311432B
:100AA000C3F8041310BD000000200140E030FCFF3B
:100AB000C06C80B270470246002012680A4200D023
:100AC0000120704730B542680F4B0C791A400B6813
:100AD00042EA04221343436082680C4B4D791A406A
:100AE000D1E9034323438C6844EA45042343134379
:100AF0008360C26A097D22F47002491EC9B242EACB
:100B00000151C16230BD0000FFFEFFFCFDF7FFC0D8
:100B100070B5072609290AD9C568A1F10A0404EBB2
:100B20004404A640B543A3401D43C56007E00569E2
:100B300001EB4104A640B543A3401D4305611F23BB
:100B4000072A09D2446B521E02EB820293409C4357
:100B500091400C43446370BD0D2A09D2046BD21F2F
:100B600002EB820293409C4391400C43046370BDAE
:100B7000C46A0D3A02EB820293409C4391400C43BD
:100B8000C46270BD816841F080418160704700009F
:100B9000FEB58748D0ED000A9FED861A9FED860AC4
:100BA00010EE810AF3EE0B0A80EE201ABDEEC10AA8
:100BB00010EE103A642B00DD6423804890ED000AAB
:100BC000DFED7F0A20EE200ABDEEC00A10EE100A0B
:100BD000002800DA40427B4991ED000A20EE200A0D
:100BE000BDEEC00A10EE101A002900DA4942764C18
:100BF000E278B2B10022764DE270744C95ED000AB5
:100C00002678BDEEC00A012E0DD0002A77D003B0A1
:100C1000CBB2BDE8F040C2B210EE101A6DA007F0E2
:100C2000A9BB0122E7E76F48007806281BD00528FA
:100C300029D004283BD0032872D06B48D0ED000A9D
:100C40006A48FDEEE00A10EE903AD0ED000AFDEEA3
:100C5000E00A10EE902A10EE101A65A007F08AFB49
:100C600000202070FEBD664890ED000A6548BDEE8C
:100C7000C00A10EE103A90ED000A6348BDEEC00ABB
:100C800010EE102A0EE0614890ED000A6048BDEEBB
:100C9000C00A10EE103A90ED000A5E48BDEEC00AA0
:100CA00010EE102A90ED000ABDEEC00AD3E75A48B4
:100CB0000078022813D0032822D0042831D05748C6
:100CC00090ED000A5648BDEEC00A10EE103A90EDC5
:100CD000000A5448BDEEC00A10EE102AE2E752485E
:100CE00090ED000A5148BDEEC00A10EE103A90EDAA
:100CF000000A4F48BDEEC00A10EE102AD2E74EE0BF
:100D00004C4890ED000A4C48BDEEC00A10EE103A77
:100D100090ED000A4948BDEEC00A10EE102AC1E766
:100D20000FE0474890ED000A4648BDEEC00A10EEBD
:100D3000103A90ED000A4448BDEEC00A10EE102AA9
:100D4000B0E7424890ED000A4148FDEEC00A90ED40
:100D5000000A4048BDEEC00A90ED001A3E48BDEEC4
:100D6000C11A8DED001A8DED010ACDED020A90ED4C
:100D7000000A3A48BDEEC00A10EE103A90ED000AA3
:100D80003748BDEEC00A10EE102A90ED000A35A0DB
:100D9000BDEEC00A10EE101A07F0ECFA60E7CAB216
:100DA000C1B2CDE9001235A007F0E4FAFEBD0000A3
:100DB0004000002000007A4400401C46F0810020E2
:100DC0000000C84204820020DC0200203B02002018
:100DD000BC0100207B4225643A25643A25647D24C9
:100DE0000000000047020020040200200002002052
:100DF0007B4325643A25643A25647D240000000085
:100E0000EC010020E801002054020020E401002051
:100E1000E001002050020020B9010020D80000208D
:100E2000D4000020D0000020B4000020B00000203A
:100E3000AC000020A8000020A4000020A00000209A
:100E4000C0000020BC000020B800002018010020D5
:100E500014010020100100200C01002008010020D6
:100E6000040100207B4325643A25643A25643A2531
:100E7000643A25643A25647D240000007B412564A2
:100E80003A25643A25643A25643A25647D240000B5
:100E9000F0B5224B0027197A5E7A491CCDB2711C3D
:100EA000CCB2D9792B2812D081B39A7903F1340CC2
:100EB000521CD2B20CEB810C9A715CF804CC1CF879
:100EC00002C084450CD11D72222D06D01CE0491CA5
:100ED000D9719F711D725C7216E01F725F7211E012
:100EE0000E4D2C3505EB810555F8045CAA5C824259
:100EF00003D001290BD10D2E09D35C722C2C03D108
:100F00005F721F72DF719F710120F0BD03E01F72DD
:100F10005F72DF719F710020F7E70000C4000020BE
:100F200030B58DB00121022003F078FD01210D02C2
:100F3000284603F0A3FD032002218DF82C000A911E
:100F400000248DF82F400AA9134801F0B7F80121B9
:100F5000284603F09FFD0021284603F09BFD0694E0
:100F600068020994CDE9070406A8FFF78BFD8DF808
:100F7000044000948DF80540029404940120074C2D
:100F80008DF8140069462046FFF79CFD012120469C
:100F9000FFF76EFD0DB030BD00040240002001409F
:100FA00070B58CB00121022003F038FD01214E0202
:100FB000304603F063FD03208DF82C00012500244A
:100FC0000A958DF82F400AA9134801F077F80121FE
:100FD000304603F05FFD0021304603F05BFD0694D0
:100FE00068040994CDE9070406A8FFF74BFD8DF8C6
:100FF000044000948DF8054002940494074C8DF849
:10100000145069462046FFF75DFD01212046FFF799
:101010002FFD0CB070BD0000000402400021014013
:101020005B4B00B530EEC01AD3ED1D1A594971EE75
:10103000811A11EE900AC3ED1D1A9FED572A8842BE
:1010400002DD83ED1D2A08E011EE900A5349884223
:1010500003D9DFED531AC3ED1D1A52480078DFEDB6
:10106000521A4B4930EEC00A0428D1ED1E2A30EE48
:10107000620A32D002284CD0032866D0052864D0FA
:101080004A48D0ED000A60EE812A9FED493A49486E
:10109000C2EE830AD0ED002A93ED1D3A464862EE77
:1010A000832A82EEA13AD0ED001A20EE210AC0EE8A
:1010B000021A70EEC30A30EEE10A83ED1C0A3F48C3
:1010C00083ED1E1A90ED000ABDEEC00A10EE100A64
:1010D00004F0E6FC012854D057E03948D3ED1D2A2E
:1010E000D0ED000A374820EE812AC2EE210A90EDA9
:1010F000002A354822EE222AC2EE212A90ED002A4B
:1011000020EE020A80EE212A70EEA20A30EE820A58
:10111000D3E72E4893ED1D3AD0ED000A2C4860EE3F
:10112000812AC2EEA10AD0ED002A2A4862EE832A63
:1011300082EEA13AD0ED001A20EE210AC0EE021A8A
:1011400070EE830A30EEA10AB7E72348D3ED1D2ADB
:10115000D0ED000A224820EE812ADFED200AC2EEFF
:10116000201A90ED002A1F4822EE222AC2EE202AE1
:1011700071EEA20AD0ED001A41EE800AC3ED1C0AFE
:101180009DE79FED190A83ED1D0A93ED1C0A00BD32
:101190004002002000007A4400007A4400007AC433
:1011A00000007AC4B90100200050C347D0000020DD
:1011B0000050C3C7D8000020D40000204000002009
:1011C000B8000020C0000020BC000020AC000020BF
:1011D000B4000020B0000020A00000200000C842A1
:1011E000A8000020A4000020000000001CB509F0A9
:1011F000BDFADFF854B2DFF85482954D954EDFF812
:101200005892DFF858A2002401900A2101A80BF09F
:10121000CDFBDBF8040040F6B832904202DA401C05
:10122000CBF8040001F074FA98F802004746401C1D
:10123000C0B288F802000A2802D17C70BC70FC6041
:10124000322009F0F5F8012802D002282ED112E050
:10125000F879401CC0B2F871062802D0052803D0E6
:1012600004E009F017FA01E009F084F8F87906289B
:101270001CD9FC711AE0F879062803D048B101287E
:1012800007D013E0387810B10020387005E0012055
:10129000FBE7F86818B10020F86010B106E0012003
:1012A000FAE74FF4E1616E48FFF701F8F878F97951
:1012B000884207D0401CF87002F004FEF878062837
:1012C00000D9FC70F87906280ED0002000F0D2F882
:1012D000F879D8B101281CD002281DD003281ED0CF
:1012E00004281FD0052820D001F010F95D4890EDAA
:1012F000000ABDEEC00A10EE100A04F0D1FBB8B12E
:1013000000231A4619461846009463E000F056FF81
:10131000ECE703F0A5F8E9E702F022FBE6E702F0CC
:10132000BDFBE3E702F09CFCE0E701F027F8DDE716
:10133000D5ED020A95ED000A02F004FA00EE100A5B
:10134000B8EEC00A85ED010AD6ED020A96ED000A54
:1013500002F036FA00EE100A4F46B8EEC00A86EDEB
:10136000010AD9ED020A99ED000A02F067FA00EECF
:10137000100A5346B8EEC00A87ED010ADAED020AF8
:101380009AED000A02F098FA00EE100A44F2740096
:10139000B8EEC00A83ED010A02F0E0FC32480078A2
:1013A0000628BFF432AFDFE800F003182E4C034CE0
:1013B000009493ED010ABDEEC00A10EE103A97EDCD
:1013C000010ABDEEC00A10EE102A96ED010AB1EE38
:1013D000400A29E003F0F4FD17E7009493ED010AB9
:1013E000BDEEC00A10EE103A97ED010ABDEEC00A3C
:1013F00010EE102A96ED010ABDEEC00A10EE101A8A
:1014000095ED010A18E019480068009093ED010A73
:10141000BDEEC00A10EE103A97ED010ABDEEC00A0B
:1014200010EE102A96ED010ABDEEC00A10EE101A59
:1014300095ED010AB1EE400ABDEEC00A10EE100AA9
:10144000C8E70094E2E7000040820020400200204C
:10145000F081002004820020188200202C820020CD
:101460001809002040000020B901002010020020CF
:10147000FEE70000064B4FF4807128B1521C8242F7
:1014800005DB184600F068BE184600F063BE7047E2
:10149000000002401CB50121084603F0BFFA4FF4DA
:1014A0008070009001208DF8040000218DF8061056
:1014B00003218DF805108DF807006946014800F0FA
:1014C000FDFD1CBD0000024070B504460020024630
:1014D00004EB8001401CC1F888251028F8D30020B7
:1014E0004FF480652118401C81F81C21A842F9D3D3
:1014F000227062700120A070C4F8C82520764021B7
:10150000A171627684F81C2584F81D0584F81F25D6
:10151000010284F81E2504F11C00FEF7C8FE2946CE
:1015200004F58E70FEF7C3FE122104F22650FEF77A
:10153000BEFE3E2104F5A760FEF7B9FE002070BD97
:1015400070470000F0B511480021007801281BD138
:101550000F4B104A00204FF0937540F2BB244FF41C
:10156000906602EBC0077F681F44AF4206D932F88D
:1015700030707F1EA74201D2491CC9B2401CB04244
:10158000EFDB09B10120F0BD0020F0BD40020020DA
:10159000000090BD18090020284B00B530EEC00AAD
:1015A000D3ED010A264970EE800A10EE900AC3EDD1
:1015B000010A884202DDDFED230A06E010EE900A00
:1015C0002149884203D9DFED210AC3ED010A2048F1
:1015D00093ED012AD0ED000A1F4860EE801ADFED7E
:1015E0001D0A81EEA01AD0ED001A1C4861EE821A85
:1015F00081EEA02AD3ED021A70EE611A31EE021AC2
:1016000090ED002A164861EE821A81EEA02A71EE52
:10161000020AC3ED000A83ED020A90ED000ABDEE56
:10162000C00A10EE100A04F03BFA012803D19FED26
:101630000D0A83ED010A93ED000A00BDC0020020EF
:1016400000007A4400007A4400007AC400007AC4A2
:10165000040100200000C8420C0100200801002005
:1016600040000020000000000020401C1E28FCDB81
:10167000704700002DE9F047FC492DED040B2DEDDE
:101680000E8BF0EE0CCAC879012800D040B9C868AA
:1016900030B1487820B110AA0FA90EA803F05CFA67
:1016A000F34BDFF8D083F44E1878F44FB8EE0CCA41
:1016B0009FEDF3BB9FEDF4DAF44AF54DF54CB6EE31
:1016C00000AA08B1012815D10EA890EC030A03F076
:1016D000B1FCF148D0ED008ACDED0E8A90ED018A83
:1016E0008DED0F8AD0ED020ACDED100A187898B36F
:1016F000012853D0C0B202287DD0032803D004288B
:101700007AD0052879D19DED100AD2ED000A20EE9D
:10171000201ADDED0E0AF0EE601A41EE4A0A41EEA3
:101720000A1AB0EE6C1AC5ED020AB0EE600AC4EDFA
:10173000021AF0EE4C0A0AF049FE85ED020A94ED19
:10174000020AB0EE6C1AF0EE4C0A0AF03FFE84ED8D
:10175000020A86ED02DAB8E0FFE798ED000A92EDA2
:10176000001A78EE281A38EEC82A30EE011AF0EE88
:10177000612A40EEC11A40EE812AC5ED021AB0EE90
:10178000610AF0EE421A00EE812A40EEC11AC4ED61
:10179000021AC6ED022A87ED022AC1E1DFF8FC82B7
:1017A000B0EE481A98ED000A00EE201A20EE200A4A
:1017B00010EE100A85ED021AFEF72AFF28EE0A0A3B
:1017C00041EC190B10EE100AFEF722FF41EC1E0B44
:1017D00018EE900AFEF71CFF41EC180BB0EE4B0A16
:1017E000F0EE6B0A07F018FC9FEDAD1B51EC100BEF
:1017F00053EC112B02E06EE078E168E0FEF709FEA1
:1018000053EC182BFEF705FE53EC1E2BFEF7FBFDE9
:1018100053EC192BFEF756FDFEF70DFFA06098ED77
:10182000000ADDED100A20EE200A10EE100AFEF785
:10183000EFFE9DED0F0A41EC180B20EE0A0A10EEA8
:10184000100AFEF7E5FE41EC1A0B0E98FEF7E0FEDB
:1018500041EC190BB0EE4B0AF0EE6B0A07F0DCFB23
:101860009FED911B51EC100B53EC112BFEF7D1FDAA
:1018700053EC192BFEF7CDFD53EC1A2BFEF7C3FDED
:1018800053EC182BFEF71EFDFEF7D5FEB06095ED6C
:10189000020AB0EE6C1AF0EE4C0A0AF097FD85EDE4
:1018A000020A94ED020AB0EE6C1AF0EE4C0A0AF04D
:1018B0008DFD84ED020A96ED020AB0EE6C1AF0EE90
:1018C0004C0A0AF083FD86ED020A87ED02DABDECD0
:1018D0000E8BBDE8FF87DFED76DA92ED000ADDEDD5
:1018E00010AA914620EE0A0A10EE100AFEF790FEAA
:1018F00041EC190B1AEE900AFEF78AFE41EC100B30
:1019000007F0CAFBB0EE408AF0EE608AD8F800001B
:10191000FEF77EFE53EC182BFEF7EDFD53EC192B72
:10192000FEF771FDFEF787FE02EE100A9FED611AC9
:10193000DFED610AB0EE6A0A0AF048FDB5EEC00AB2
:10194000B0EE408AF1EE10FA18D099ED000AB0EE30
:10195000421ADDED0E0A00EE4A1A21EE201AC1EEFF
:10196000021AB0EE421A00EE0A1A21EE200AC0EE68
:10197000020AC5ED021AC4ED020A05E09DED0E0A49
:1019800085ED020A84ED020A9FED4C0A28EE000A5A
:1019900010EE100AFEF73CFE41EC1A0B18EE100A8E
:1019A000FEF736FE41EC100B9FED451B06F00CFDDB
:1019B0009FED451B51EC100B53EC112BFEF729FD4D
:1019C00041EC190B18EE100AFEF722FE41EC100B49
:1019D000B0EE4B1AF0EE6B1A06F0F6FC9FED3C1BD6
:1019E00051EC100B53EC112BFEF713FD53EC192B9C
:1019F000FEF768FC53EC1A2BFEF705FD9FED361B36
:101A000053EC112BFEF75EFCFEF715FE00EE100AFC
:101A1000DFED330A344BB0EE6C1A70EE600A9FEDC6
:101A2000310A00EEAD0AF0EE4C0ABDEEC00A83EDBD
:101A3000000A95ED020A0AF0C9FC85ED020A94ED50
:101A4000020AB0EE6C1AF0EE4C0A0AF0BFFC84ED0C
:101A5000020A86ED02DA87ED02DA40F698024FF4C8
:101A6000487118680AF0C2FC186030E74002002094
:101A7000B901002030020020188200202C820020B2
:101A80000000000000000840000000002C020020C0
:101A9000F081002004820020E48100203402002034
:101AA000000000000000E0BF000000000000E03F78
:101AB000D7231F440AD7A33E48E1FABEE5D0E23F50
:101AC000000000000000004000000000D34DF43F83
:101AD000000000809318E4BF000000E07A14FC3F8F
:101AE000D7A3E03F0080BB441002002092ED000A23
:101AF000D8ED000A30EE200ADDED100A20EE201AA3
:101B0000DDED0E0AB0EE600A41EE0A0A01EE4A0A65
:101B100085ED020A84ED020AC6ED020AC7ED020A4B
:101B2000B0EE6C1AF0EE4C0A0AF050FC85ED020A99
:101B300094ED020AB0EE6C1AF0EE4C0A0AF046FC84
:101B400084ED020A96ED020AB0EE6C1AF0EE4C0A31
:101B50000AF03CFC86ED020A97ED020AB0EE6C1A20
:101B6000F0EE4C0A0AF032FC87ED020AAFE6000004
:101B70001CB50121082002F051FF08200090002030
:101B80008DF8040003208DF8050001208DF8070072
:101B90006946024800F092FA1CBD0000000C0240A9
:101BA000F0B5012189B0084602F05CFF0121032055
:101BB00002F034FF03258DF8055002264FF4004053
:101BC0008DF8046001242B4F00908DF806408DF8AD
:101BD00007406946384600F071FA8DF805508DF8D7
:101BE00004608DF806408DF807400820224C0090D4
:101BF0006946204600F062FA01220F21384600F0C3
:101C000099FA01220321204600F094FA02A803F079
:101C10003DFF00244FF6FF70ADF8084003907507B4
:101C2000ADF81040ADF80A4002A9284603F0F0FED6
:101C300000231A460321284603F042FD05A803F0BD
:101C4000AEFDADF81C4005A9284603F052FD012168
:101C5000284603F01DFD01221146284603F0A7FD8A
:101C60000021284603F0AAFE0121284603F013FDB7
:101C700009B0F0BD000002400004024030B589B058
:101C80000121022002F0EEFE0121022002F0C6FE38
:101C90003020039003208DF8110002208DF81000F1
:101CA00001208DF81200224C8DF8130003A9204664
:101CB00000F004FA02220421204600F03BFA02223E
:101CC0000521204600F036FA684603F0DFFE0024C6
:101CD0004FF6FF70174DADF800400190ADF8084089
:101CE000ADF802406946284603F092FE00231A46EA
:101CF0000321284603F0E4FC05A803F050FDADF8ED
:101D00001C4005A9284603F0F4FC0121284603F0F5
:101D1000BFFC01221146284603F049FD0021284658
:101D200003F04CFE0121284603F0B5FC09B030BD9C
:101D3000000402400004004030B589B001210420B5
:101D400002F090FE0121022002F068FEC020039004
:101D500003208DF8110002208DF8100001208DF86D
:101D60001200224C8DF8130003A9204600F0A6F9BA
:101D700002220621204600F0DDF90222072120463A
:101D800000F0D8F9684603F081FE00244FF6FF709A
:101D9000174DADF800400190ADF80840ADF8024095
:101DA0006946284603F034FE00231A4603212846DC
:101DB00003F086FC05A803F0F2FCADF81C4005A971
:101DC000284603F096FC0121284603F061FC01221D
:101DD0001146284603F0EBFC0021284603F0EEFDF7
:101DE0000121284603F057FC09B030BD0004024031
:101DF0000008004030B589B00121082002F032FE11
:101E00000121084602F00AFE274C0222002120464A
:101E100000F090F902220121204600F08BF9022106
:101E20008DF811108DF81010012103208DF812107B
:101E300003908DF8131003A9204600F03FF968467F
:101E400003F024FE00244FF6FF70184DADF800405B
:101E50000190ADF80840ADF802406946284603F00D
:101E6000D7FD00231A460321284603F029FC05A8C4
:101E700003F095FCADF81C4005A9284603F039FC99
:101E80000121284603F004FC01221146284603F0F4
:101E90008EFC0021284603F091FD0121284603F025
:101EA000FAFB09B030BD000000000240000C004009
:101EB00072B6FEE770B53B4B3B4C05221D88658131
:101EC00022802088668933F81010B14200D36181E6
:101ED000401C80B220807B28F3D3A58122802088FB
:101EE000A58933F81010A94200D8A181401C80B206
:101EF00020807B28F3D36089A18908444008208290
:101F00002280228833F81210814214D903EB420157
:101F10004D8885420FD98D8885420CD9CD88854260
:101F200009D20D89854206D24989814203D291B2F4
:101F3000891CA18004E0521C91B221807629E0D353
:101F4000762161808AB233F81210814214D203EBF9
:101F500042014D8885420FD28D8885420CD2CD88B2
:101F6000854209D90D89854206D94989814203D91B
:101F700090B2801CE08004E0521E91B2618005297D
:101F8000E0D8E088A18808444008E0812189401A0F
:101F900008F06EFC5A2801D92089E081E08920816F
:101FA00070BD00006403002018000020344B00B511
:101FB00030EEC01AD3ED051A324971EE811A11EED6
:101FC000900AC3ED051A884202DDDFED2F1A06E004
:101FD00011EE900A2D49884203D9DFED2D1AC3ED89
:101FE000051A274930EEC00A2A4891ED062ADFED8E
:101FF0002A1A007830EE420A022828D0012826D07A
:10200000264890ED002A2648C2EE210AD0ED002A8B
:10201000244882EEA12AD3ED052A60EE810A42EE21
:10202000220AD0ED002A204882EEA12A42EE000AC0
:10203000C3ED040A83ED061A90ED000ABDEEC00A56
:1020400010EE100A03F02CFD012812D015E01748FD
:1020500090ED002A1648C2EE210AD0ED002A15485C
:1020600082EEA12AD3ED052A60EE810A42EE220A11
:10207000D7E79FED110A83ED050A93ED040A00BD31
:10208000C002002000007A4400007A4400007AC4B4
:1020900000007AC4B90100200000C84210010020ED
:1020A0001801002014010020400000201C01002025
:1020B000240100202001002000000000F0B50022D3
:1020C00001274FF0030C0B6807FA02F52B40AB42D7
:1020D0002CD1066853000CFA03F4A64306600E796F
:1020E000D0F800E09E4046EA0E0606600E79012E0A
:1020F00001D0022E12D18668A64386604E79D0F8B0
:1021000008E09E4046EA0E0686604668AE4346609A
:1021100045688E799640B6B235434560C568A5439B
:10212000C560CC799C40C3681C43C460521C102A13
:10213000C9D3F0BD4B07DB0E9A40C90810B500EBC0
:102140008100016A0F249C40A1430162016A11438E
:10215000016210BD418370470183704710B50A4C7E
:102160000146072301222046FEF7D2FC2046FEF757
:1021700009FD02212046FEF79EFC0028F9D02046EA
:10218000BDE81040FEF794BC0020014010B50A4C99
:102190000146072301222046FEF7BAFC2046FEF73F
:1021A000F1FC02212046FEF786FC0028F9D02046EB
:1021B000BDE81040FEF77CBC00210140F0B462484D
:1021C0006349027861480D780678624804789FED8B
:1021D000621A624BDFED622ADFED621A624F9FEDF9
:1021E000632A634897ED000A6249F1EE400A52B152
:1021F000012A08D0092C66D2DFE804F0654346497D
:102200004E5156596200092C24D2DFE804F0230510
:10221000080B1013181B200080ED000A0CE080ED65
:10222000000A01E080ED001AC3ED000A53E0C0EDA2
:10223000000AF9E7C0ED000A83ED001A4BE0C0ED9B
:10224000000A01E080ED001A83ED000A43E080ED12
:10225000000AF9E780ED001A83ED001A012E04D080
:10226000012D07D081ED001A35E0C0EE220A60EEA4
:10227000820A03E0C0EE220A60EEA10AC1ED000A64
:1022800029E080ED000A0CE080ED000A01E080ED1D
:10229000001AC1ED001A0EE0C0ED000AF9E7C0ED2A
:1022A000000A81ED001A06E0C0ED000A01E080EDB1
:1022B000001A81ED002A012E08D0012D09D00AE074
:1022C00080ED000AF5E780ED001AEAE781ED002ACB
:1022D00001E0C1ED001A022A06D0032A0DD0052A1A
:1022E0000BD0042A09D01BE091ED000AF2EE020A9D
:1022F00080EE201A81ED001A12E0D0ED000AF5EE12
:10230000C00AF1EE10FAD1ED000A03D2F1EE600A34
:10231000C1ED000A20EE800AC0EE220AC1ED000ADB
:10232000D0ED000A9FED141A80EE810A80ED000ABC
:10233000D3ED001AC1EE810AC3ED000A91ED001A37
:10234000F0BCFFF797B90000B90100203802002067
:10235000390200200A020020000000001C020020B8
:102360000000FA43DB0FC9BFBC010020DB0FC93FEF
:10237000180200202002002000007A44DFED4E0AFF
:102380004E494F4A4F48D1ED041AC2ED001A008859
:10239000403800EE100A4C48B8EEC01A81ED131A0E
:1023A00000789FED4A0ADFED4A2A0B46012893ED9B
:1023B000142A22D005282BD0464B31EE422A93ED29
:1023C000003A454B21EE033A23EE000A93ED003A22
:1023D00081ED141A22EE032A02EE620A9FED3F1AE3
:1023E0003F4900B3012823D0022828D0032829D050
:1023F000052837D004283FD051E03A4B31EE422A2D
:1024000093ED003A384B21EE033A23EE000ADDE764
:10241000364B31EE422A93ED003A354B21EE033A2A
:1024200023EE000AD2E7B0EE612A20EE020A32E083
:10243000B0EE611A20EE010A9FED2E1A2BE09FEDFF
:102440002E1A28E0B0EE611AB5EEC01AF1EE10FABD
:1024500001D2B1EE400AB0EE611A20EE010A9FED02
:10246000271A18E0B0EE612AB5EEC02AF1EE10FA94
:10247000D9D2B1EE400AD6E7B0EE611AB5EEC01A75
:10248000F1EE10FA01D2B1EE400AB0EE611A20EE80
:10249000010A9FED1B1A80EE012A81ED002A9FEDB3
:1024A000191A194881EE810A82ED000A91ED001A8D
:1024B000C0ED000AFFF7DEB8000000004002002077
:1024C0001802002026000020B9010020CDCCCCBD90
:1024D000CDCCCC3DE0010020E4010020005043477A
:1024E00020020020D0010020D4010020C0010020E3
:1024F000C40100200010A4460000E14300DC824734
:1025000000089D4600007A441C0200202DE9F0419D
:102510002DED028BDFED668AFFF714F8654E664CF1
:10252000D8B16420FEF7A6FFC6ED008AC4ED008A8C
:10253000D6ED000A9FED611A614880EE810AF0EE47
:10254000680A86ED000A94ED001AC0ED008ABDEC21
:10255000028BBDE8F041FFF78DB85A4D5A485B4FEA
:1025600095ED050A86ED000A0068C0F1640000EEF2
:10257000100AB8EEC00A85ED150A38789FED541A96
:10258000DFED540A01282BD0052836D05248D0ED73
:10259000001A524860EE211A21EE818A95ED161A32
:1025A00030EE411AD0ED001A21EE211A01EE608AB8
:1025B00085ED160A0020FEF75DFF3878A0B30128EC
:1025C0003AD003283FD005284DD004285BD00228FC
:1025D000AED19FED430AC8EE000AC4ED000AA7E79A
:1025E0004048D0ED001A404860EE211A21EE818A61
:1025F00095ED161A30EE411AD4E73C489FED3C1A8F
:10260000D0ED000A3B4860EE200A20EE818AD5ED2D
:10261000160A90ED001A70EE600A60EE810A9FEDD6
:10262000361A00EEC18AC3E7FFE795ED050ADFED34
:10263000330A28EE000A35E095ED050ADFED300A91
:1026400028EE000A2EE096ED000AB5EEC00AF1EE83
:1026500010FA01D2B1EE488A95ED050ADFED290A9C
:1026600028EE000A1EE096ED000AB5EEC00AF1EE73
:1026700010FA01D2B1EE488A95ED050ADFED220A83
:1026800028EE000A0EE096ED000AB5EEC00AF1EE63
:1026900010FA01D2B1EE488A95ED050ADFED1B0A6A
:1026A00028EE000A80EE201A84ED001A40E70000B0
:1026B00000000000180200202002002000007A44E0
:1026C0001C0200204002002038000020B901002038
:1026D0000AD7A3BDCDCC4C3DE8010020EC01002081
:1026E0000000E143D8010020DC010020C8010020E7
:1026F000CDCCCCBDCC010020CDCCCC3D005043474F
:1027000000C0284600C82F4700C0DA4600089D4692
:1027100010B502202DED048B02F0EEFA3C4C206047
:10272000032002F0E9FA6060042002F0E5FAA060FC
:10273000052002F0E1FA3749E0600978062919D24C
:10274000DFE801F04703575747572168494200EE39
:10275000101A6168F8EEC09A494200EE101AA1689A
:10276000B8EEC09A494200EE101A4EE000EE100A90
:10277000B8EEC08A9FED281A284869EE810A90EDCC
:10278000000A274860EE801AD0ED000A254881EE45
:10279000A02A69EE011A61EE801A80ED002A81EE0E
:1027A000A02A68EE811A204828EE011A61EE801AEC
:1027B00021EE000A80EE201A80ED002A1B4881EEEF
:1027C000A02A80ED002A1A4880ED001ABDEC048B87
:1027D00010BD94ED000AA168F8EEC09A94ED010ACC
:1027E00049424042B8EEC09A00EE101AF8EEC08A94
:1027F000BCE794ED000A6168F8EEC09A494200EE29
:10280000101AB8EEC09A94ED020AF8EEC08AADE74D
:102810004C820020B90100200000C842280200209C
:1028200024020020F0810020048200201882002071
:102830002C8200202DE9F04100250E4607462C464B
:1028400008E03846FFF78AFC0544052007F0ECFE57
:10285000641CE4B2B442F4D3B5FBF6F080B2BDE838
:10286000F081000010B50820FFF790FCFDF7C3FED3
:102870009FED0E1B53EC112BFDF7CBFD9FED0D1BB8
:1028800053EC112BFDF7C5FD9FED0C1B53EC112BE9
:10289000FDF7BFFD9FED0B1B53EC112BFDF7B9FDB1
:1028A000FDF7C9FE00EE100A10BD00006666666600
:1028B00066660A400000000000002640000000801C
:1028C00014AEEF3F000000000000303FD0F8DC0302
:1028D00004F0A0BAD0F8DC0304F0B2BA006804F047
:1028E00063BF006804F064BFC1EB011100EB81001D
:1028F000002200F81A2F4270C2728272104670478E
:10290000C1EB011100EB810090F84C007047C1EB66
:10291000011100EB8100806B704710B5044690F800
:10292000D403012809D0012084F8D403206804F0DE
:102930004AFF002084F8D40310BD022010BD2DE909
:10294000FF4F83B00546DDE9117690F8D403DDF83A
:10295000408093468A4601281CD0CAEB0A10012306
:1029600005EB800485F8D4334FF0000984F8199002
:102970000698207584F815A084F826700BF07F0067
:10298000A07551462846FFF7AFFF5FEA0B6005D5FB
:10299000E37505E0022007B0BDE8F08F84F81790DA
:1029A000286804F005FF012F06D1B8F1010F03D10B
:1029B00010B9BC2E00D9BC2684F81880B0B220858E
:1029C000CDF80080CDE9017028685A465146069B33
:1029D00004F064FF85F8D493DDE7D0F8DC0304F05D
:1029E000A7BA2DE9F0030E46DDE906C9DDE9087452
:1029F000C1EB061100EB81010225CA7581F8263072
:102A0000BCF1000F0AD081F82A50002463B1012BD9
:102A100031D0022B28D0032B16D125E04FF003082C
:102A200081F82A804C76F0E7BCF1010F0CD11AB185
:102A30008A7E012A19D007E0D7B9012281F83D200A
:102A400000E0C2B181F82A50C1F82C904F6381F8A0
:102A50004C408C634E7581F84D4082790068BDE82A
:102A6000F003143104F0AABF12B191F83C20E8E75A
:102A700091F83D20E5E781F82A40E5E72DE9F041AE
:102A800004460068064604F09AFE012876D12068C4
:102A900005F04EF9002871D0206805F049F9800250
:102AA00003D521684FF400104861206805F040F913
:102AB000C00203D521684FF480104861206805F0FA
:102AC00037F9400103D521684FF0806048612068E4
:102AD00005F02EF9800702D52168022048612068A0
:102AE00005F026F9800018D521684FF000504861A4
:102AF000D6F84004C00710D11021304604F036FE4D
:102B0000304604F017FE607A022803D101212068C4
:102B100005F0EAF82046FFF7DDFE206805F008F929
:102B2000C00102D5204600F01FFC206805F000F926
:102B3000000705D5204600F0BAF821680820486152
:102B4000206805F0F5F8800123D5206804F032FFF5
:102B5000074600254FF0010814E005F00F0108FAC0
:102B600001F038420DD006EB4510D0F80005E9B26F
:102B70000004204603D500F0C6F802E01CE000F097
:102B800080FA6D1C6079A842E7D821684FF0007088
:102B90004861206805F0CCF8C043C0060CD420681A
:102BA000816921F010018161204600F027FC206836
:102BB000816941F010018161BDE8F081F8B5040040
:102BC00005D094F8D5032568002610B106E0012051
:102BD000F8BD84F8D463204600F028F8032084F878
:102BE000D503B5F1A04F00D1A671206804F06EFDA9
:102BF000207C8DF8000094E80F0004F007FD02250A
:102C000060B90121206805F0CFF838B9207C8DF833
:102C1000000094E80F0004F0FFFF10B184F8D553D2
:102C2000D5E7012084F8D5030020F8BD3EB5012189
:102C3000084601F0F3FE0121802001F0FBFE4FF475
:102C4000C050009002208DF8040003208DF805008C
:102C5000104D00248DF8074069462846FFF72EFAEC
:102C60000A220B212846FFF765FA0A220C21284682
:102C7000FFF760FA43208DF8080005208DF8090061
:102C80008DF80A4001208DF80B0002A801F0DEF853
:102C90003EBD000000000240D0F8DC0304F065B93E
:102CA000D0F8DC0304F065B9006805F064B8D0F82A
:102CB000DC0304F005B910B5044690F8D4030128EC
:102CC0000DD0012084F8D4030121206804F016FD02
:102CD000206804F029FD002084F8D40310BD0220F0
:102CE00010BD10B5044690F8D403012809D0012086
:102CF00084F8D403206805F085F8002084F8D40314
:102D000010BD022010BD2DE9F05F054600680E469B
:102D1000074605F005F8C6EB061140074FF0070817
:102D20004FF0040905EB810401D5484633E03146F4
:102D3000286804F0F5FFC0054FF0080A08D507EB36
:102D400046114FF48070C1F8080584F84DA028E0C2
:102D50003146286804F0E4FF000705D507EB46116B
:102D6000C1F808A506200CE03146286804F0D8FF19
:102D7000400509D507EB46114FF48060C1F80805FE
:102D8000092084F84D000CE03146286804F0C8FFA3
:102D900000060AD5802007EB4611C1F8080584F823
:102DA0004D803146286804F00EFD3146286804F055
:102DB000B7FF80052868314604D504F004FD4FF4C0
:102DC000007059E104F0ACFFC0074FF0200B4FF04A
:102DD000010A4FF000084ED007EB4617C7F808B5B8
:102DE000E07E012807D184F81B80D7F8040520F481
:102DF0008030C7F80405A87930B1206BD7F81015DA
:102E0000C1F31201401AA06384F84DA0C4F84480B5
:102E10005246C7F808A594F8260030B1022804D01D
:102E200003280AD0012808D013E03146286804F0AE
:102E3000CAFC1020C7F808050BE0D7F8000540F0E1
:102E40000050C7F8000584F84C2031462846FFF7AB
:102E5000C4FDA879012807D1208DA16B0144491E2A
:102E6000B1FBF0F0C00704D014F83C0F80F0010073
:102E70002070BDE8F09F3146286804F051FF8006BD
:102E80000CD507EB4611C1F808B5A07E0128F0D19A
:102E900084F81BA0032084F84D00B4E03146286874
:102EA00004F03EFF80074FF0050B75D507EB461089
:102EB0000222C0F8082594F84D10012916D00629E1
:102EC00019D007291CD009291AD0052933D0032984
:102ED00063D004297DD008297ED00229C9D094F876
:102EE0004C2031462846FFF778FDC2E784F84D2094
:102EF00084F84CA0F3E784F84D2084F84CB0EEE75A
:102F000084F84D20616C491C6164022910D9C4F811
:102F10004480A27E4146012A07D1E1762177D0F88C
:102F2000041521F48031C0F8041584F84C90D6E7DC
:102F300084F84C2022E084F84D20E17E0129CED196
:102F400094F826100329F3D1A16C491CA16402292D
:102F500011D9C4F8488084F81B80616C032901D220
:102F600084F81CA0D0F8041521F48031C0F80415B1
:102F700084F84C9002E084F84C20B0E794F82610D6
:102F800009B10229ABD1D0F8001521F0804141F000
:102F90000041C0F80015A2E724E084F84D20E17E4E
:102FA00001299CD184F84C20D0F8041541F48031DB
:102FB000C0F80415D0F80C1541F04001C0F80C150C
:102FC000D0F80C1521F02001C0F80C15D6E700E070
:102FD00002E084F84D20ABE784F84D20606C401C83
:102FE0006064A2E73146286804F09AFE400610D5D6
:102FF00007EB46114020C1F8080584F84DB0A07ECB
:1030000008B9C4F8448031462868BDE8F05F04F090
:10301000DABB3146286804F083FEC0067FF565AF51
:1030200094F82600032803D028B1022803D00FE02B
:10303000C4F8448006E0C4F84480A87910B1E07E6A
:10304000012818D184F84D903146286804F0BBFB64
:10305000E07E01280FD107EB461084F81B80D0F8E2
:10306000041521F48031C0F80415D0F80C1541F096
:103070002001C0F80C15102007EB4611C1F8080517
:10308000F7E62DE9F05F054600680F46064604F0B6
:1030900047FEC7EB071140074FF0040A05EB810418
:1030A00005D506EB4711C1F808A5072089E0394688
:1030B000286804F035FE80064FF000084FF0010943
:1030C0004FF0020B28D506EB47112020C1F8080568
:1030D000607E0326012809D184F8198084F84CB059
:1030E00084F84D603946286804F06DFBA07E012805
:1030F00010D1E07E00280DD194F82600012801D0DF
:1031000084F81B9084F84D603946286804F05BFB16
:10311000C4F84480BDE8F09F3946286804F000FEFA
:10312000800506D506EB47114FF40070C1F808057D
:1031300049E03946286804F0F3FDC00720D0C4F800
:1031400044803946286804F0EBFD400606D506EBBE
:10315000471184F819904020C1F80805E07E48B175
:1031600006EB471084F81B80D0F8041521F4803159
:10317000C0F8041506EB47114846C1F8089520E051
:103180003946286804F0CCFD40060ED5052084F8A9
:103190004D00A07E08B984F81990C4F844803946DF
:1031A000286804F010FB402028E03946286804F025
:1031B000B7FD00070DD506EB47110820C1F808053B
:1031C000062084F84D0039462868BDE8F05F04F019
:1031D000FABA3946286804F0A3FDC00613D5C4F82E
:1031E000448084F84DA0607E18B9207E08B984F828
:1031F00019903946286804F0E6FA102006EB4711CA
:10320000C1F8080586E73946286804F089FD0006FC
:103210001CD5A87970B1606C401C6064022811D97B
:10322000C4F84480524684F84CA039462846FFF73B
:10323000D4FB09E0072084F84D003946286804F0E3
:10324000C2FA01E084F84CB08020D7E739462868FC
:1032500004F066FD400509D5092084F84D00394683
:10326000286804F0B0FA4FF48060C7E73946286850
:1032700004F056FD8007C5D506EB47115A46C1F844
:1032800008B594F84D00012817D003283AD0042837
:1032900040D005284ED006284FD0072801D0092855
:1032A000B0D184F84D20606C401C606402284AD97B
:1032B000C4F8448084F84CA04FE084F84D2084F892
:1032C0004C9094F82600022801D0032845D1A87913
:1032D00028B994F83D0080F0010084F83D00A879F9
:1032E00001283AD1606B20B3218D0844401EB0FB09
:1032F000F1F0C00731D094F83D0080F0010084F86F
:103300003D002AE084F84D20E07E012825D184F894
:103310004C2022E084F84D2084F84C20E07E0128E7
:103320001BD184F81B80D1F8040520F48030C1F84B
:10333000040512E084F84D20E9E784F84D200520CB
:1033400084F84C0009E084F84C20D1F8000520F006
:10335000804040F00040C1F8000594F84C20394608
:103360002846FFF73AFBD5E67CB504680546D4F855
:1033700040040190D4F8400420F02E000090019801
:10338000800709D50198C00702D02846FFF79EFAAA
:10339000009840F0020000900198000724D50098A2
:1033A00040F008000090019840071AD5687A02287A
:1033B00003D0E87901280CD00FE00198C0F3414018
:1033C0000228286803D0012104F08EFC05E00221C8
:1033D000FAE74EF66020C4F804042846FFF760FCC4
:1033E00002E02846FFF758FC01988006009802D5B5
:1033F00040F020000090C4F840047CBD2DE9F0416D
:10340000024600680746016AC1F3434301F00F0614
:10341000C1F30A15022B2ED1002D2CD0C6EB0611BC
:1034200002EB8104E16A002925D0A26B636B2A4478
:103430009A4222D82A4604F07FFCE06A2844E062DF
:10344000A06B2844A06307EB4610D0F81015228D1E
:10345000C1F3C941AA420ED100290CD0D0F8001501
:1034600021F0804141F00041C0F8001514F83C0FF4
:1034700080F001002070BDE8F081042084F84C0049
:10348000F9E7FEE770B50D4C0025C4F8A8520C48CA
:10349000016821F440010160016841F4800101608C
:1034A000C4F8AC52012004F52A7407F0D9F80120C1
:1034B000206007F0D5F8256070BD00000080404214
:1034C000000402401CB50121022001F0A7FA4FF4CC
:1034D0004060012400908DF8044000208DF8060023
:1034E00003208DF805008DF8074069460448FEF773
:1034F000E5FD0448C0F8A842C0F8AC421CBD00007D
:10350000000402400080404270B50D4C0026C4F813
:10351000A8620C48016821F440010160016841F48F
:10352000800101600125C4F8AC52284604F52A74D4
:1035300007F096F82560012007F092F8266070BD2C
:1035400000804042000402402DE9F04781461848BF
:103550000025016821F44001016001680160154EF9
:103560002C462F464FF00108C6F8A872012007F03C
:1035700077F8C6F8A8826806D6F82C12000E11B1AA
:1035800040F0010501E020F00105012007F068F896
:10359000641CE4B2082CE7D3B9F1000F04D0FFF7A4
:1035A000B3FF2846BDE8F087FFF76CFFF9E700009E
:1035B000000402400080404270B50D46044600F011
:1035C0001BF8204600F08AF800F05EF8284600F06C
:1035D00085F800F059F800F00FF844F0010000F011
:1035E0007DF800F051F80120FFF7AEFF044600F02F
:1035F0002BF8204670BD000070B51148016821F419
:1036000040010160016841F4800101600D4C01201E
:10361000C4F8AC02D4F82C1200290FD0C4F8A802C8
:1036200007F01EF80025C4F8AC52D4F82C0200288C
:1036300004D1012007F014F8C4F8A85270BD0000AE
:1036400000040240008040420D4810B5016821F49A
:1036500040010160016841F480010160094C0020D3
:10366000C4F8A802C4F8AC02012004F52A7406F0DC
:10367000F7FF012020606060BDE8104006F0F0BF59
:10368000000402400080404270B5124800240168E6
:1036900021F440010160016801600F4D0126C5F869
:1036A000AC62304606F0DCFFC5F8A86207E0641C97
:1036B000E4B2322C03D9FFF7C7FF002070BD012010
:1036C00006F0CEFFD5F82C020028F0D1C5F8A802EC
:1036D000012070BD00040240008040422DE9F0410D
:1036E00005461448016821F440010160016841F475
:1036F00080010160104E0027C6F8A8723C464FF0CA
:103700000108E809C6F8AC026806050E012006F0BB
:10371000A7FFC6F8A882012006F0A2FFC6F8A8728B
:10372000012006F09DFF641CE4B2082CE9D3BDE83B
:10373000F081000000040240008040420021D020BF
:10374000FFF73ABF174830EEC00A1749D0ED090A13
:10375000174A91ED001A70EE600A144960EE810A72
:1037600091ED001A41EE000A90ED081A70EE810A00
:1037700010EE901AC0ED080A914203DDDFED0D0A4C
:10378000C0ED080A10EE901A0B4A914203D9DFED02
:103790000B0AC0ED080A80ED090ABDEEE00A10EE42
:1037A000100A70474002002000020020040200209E
:1037B0000040834600408346004083C6004083C6E5
:1037C000174830EEC00A1749D0ED0C0A174A91EDA0
:1037D000001A70EE600A144960EE810A91ED001A39
:1037E00041EE000A90ED0B1A70EE810A10EE901A6D
:1037F000C0ED0B0A914203DDDFED0D0AC0ED0B0AAF
:1038000010EE901A0B4A914203D9DFED0B0AC0ED7E
:103810000B0A80ED0C0ABDEEE00A10EE100A7047AC
:1038200040020020000200200402002000408346E5
:1038300000408346004083C6004083C6174830EEF0
:10384000C00A1749D0ED0F0A174A91ED001A70EE21
:10385000600A144960EE810A91ED001A41EE000AF7
:1038600090ED0E1A70EE810A10EE901AC0ED0E0A5D
:10387000914203DDDFED0D0AC0ED0E0A10EE901A45
:103880000B4A914203D9DFED0B0AC0ED0E0A80ED21
:103890000F0ABDEEE00A10EE100A70474002002049
:1038A00000020020040200200040834600408346BE
:1038B000004083C6004083C6174830EEC00A17494F
:1038C000D0ED120A174A91ED001A70EE600A144901
:1038D00060EE810A91ED001A41EE000A90ED111A96
:1038E00070EE810A10EE901AC0ED110A914203DDCC
:1038F000DFED0D0AC0ED110A10EE901A0B4A91424D
:1039000003D9DFED0B0AC0ED110A80ED120ABDEEFE
:10391000E00A10EE100A704740020020000200206A
:10392000040200200040834600408346004083C6D6
:10393000004083C61CB50121102001F06FF8002162
:103940008DF80410032101208DF8051000908DF8EA
:10395000070069460148FEF7B1FB1CBD001002409C
:103960002DE9F04100200246DFED3F1A3F4D404C6B
:10397000B0EE610A01464FF093764FF4906704EB86
:10398000C003D3ED010A10EE903A2B44B34222D982
:1039900034F83030A3F1010CBCF5E07F1BD810EEF9
:1039A00090CADFF8C8E0521CCEF1000ED2B2F44546
:1039B00002DA30EE800A0AE010EE90CADFF8B4E0D6
:1039C000F44504DD9FED2C1A70EEC10AF1E7FA2BE5
:1039D00001D2491CC9B2401CB842D0DB284CDFEDF3
:1039E000270A284BC4ED000A2AB1082906D99FED01
:1039F000260A84ED000AC3ED001A23E02348B5EE41
:103A0000C00AC4ED001AF1EE10FA00780FDD28B1FB
:103A1000C4ED000A022804D0012805D0B7EE080A38
:103A20000EE09FED1B0A0BE0B6EE000A08E028B19D
:103A3000C4ED000A022810D0012811D0BFEE080AF8
:103A400083ED000A134893ED001A94ED000AD0EDBF
:103A5000000ABDE8F041FDF70DBE9FED0F0AEFE74C
:103A6000BEEE000AECE7000000000000000090BD80
:103A700018090020000096430000B4438FC2F53CB3
:103A800018020020200200208FC2F5BCB9010020DE
:103A9000DB0F493F1C020020DB0F49BF2DE9F0413D
:103AA00000215B4B5B4E4FF6FF74084640F23F65CA
:103AB0004FF4906733F83020A2F1010CAC4509D2E5
:103AC000491CA24206D2144603EBC00292ED010A41
:103AD00086ED170A401CB842ECDB96ED170A4E4AF9
:103AE00010EE100A904205DDDFED4C0A30EE600A60
:103AF00086ED170AD6ED180A4648494D70EE600A61
:103B00004079002210EE903A401CC0B2AB4204DC77
:103B100010EE903A434DAB4203D970711E2803D882
:103B200005E070710A2802D9727186ED180ADFED7E
:103B30003E0A3E4D3E4F08290CDA3089282804D22F
:103B4000401C80B23081282857D3C7ED000AC5ED4C
:103B5000000A52E03281374938689FED373A88428F
:103B600002DC364988421AD9B4F52F7F0ED296ED81
:103B7000180A334910EE100A884204DC10EE100ACD
:103B80003049884202D920EE030A05E096ED180A72
:103B9000FEF70CFAB1EE400A85ED000A01E0C5ED32
:103BA000000A2949F06DDFED290A884202DC284924
:103BB000884210D900EE104AB8EE400AFDF7ECFC3E
:103BC000B1EE400A87ED000A96ED180A20EE030ACE
:103BD00085ED000A07E000EE104AB8EE400AFDF756
:103BE000DBFC87ED000A9FED1B1ADFED1B0A97ED4A
:103BF000000A08F0EBFB87ED000A184895ED001A63
:103C000097ED000AD0ED000ABDE8F041FDF732BDA6
:103C10001809002040020020000034430000B44393
:103C200000002041000020C1000000002002002010
:103C3000180200208FC2753D2E9020BC8FC275BD2A
:103C400000007042000070C2000016430000FA43FA
:103C5000000016C3CDCCCC3DCDCCCCBD1C02002089
:103C60002DE9F05F344D9FED334A0024DFF8CC900E
:103C7000DFF8CC80334B344E85ED004A20464FF0C0
:103C8000010A4FF4906B06EBC00252684A44424569
:103C900013D29A6E1AB936F83020C3E9192AD3F82C
:103CA00064C036F830200CF1640C624505D2641C07
:103CB000E4B2110000D139460F46401C5845E2DB02
:103CC0002248DFED233A234E0078234F98B1012894
:103CD00011D093ED190AF8EE400A00EE101AB8EE72
:103CE000400AFDF79DF987ED000A85ED004AC6ED13
:103CF000003A8CB114E093ED190AF8EE400A00EE98
:103D0000101AB8EE400AFDF78BF986ED000A85ED32
:103D1000004AC7ED003AECE7C6ED003AC7ED003ABD
:103D200097ED001AD6ED000ABDE8F05FB0EE440A48
:103D3000FDF7A0BC8FC2F53C18020020FFFF79BC44
:103D4000FFFF01004002002018090020B9010020F7
:103D5000000000001C0200202002002000EE900A5B
:103D600041421E4AB8EEE01A00EE901A00B592EDFC
:103D7000010AF8EEE00A08F029FB00EE900A82ED55
:103D8000010A174AB8EEE01A00EE901A92ED010A05
:103D9000F8EEE00A08F01AFB00EE900A82ED010A44
:103DA000104AB8EEE01A00EE901A92ED010AF8EE11
:103DB000E00A08F00BFB00EE900A82ED010A0A4AC5
:103DC000B8EEE01A00EE901A92ED010AF8EEE00A61
:103DD00008F0FCFA82ED010A00BD0000F08100202D
:103DE00004820020188200202C8200207521D0201F
:103DF000FFF7E2BB10B501220F49104802F0B6FFF1
:103E000008B1FEF755F80E490C4803F09DFB08B1C8
:103E1000FEF74EF80B49094803F096FB08B1FEF790
:103E200047F8064803F0D7FB002803D0BDE8104050
:103E3000FEF73EB810BD0000ED7500089487002025
:103E40001403002034030020FEE7704730B50F2331
:103E5000C27801780125FAB1144A126801F1E02113
:103E600002F4E062C2F5E062C2F30722C2F1040488
:103E7000D3404278A24084781C401443220181F848
:103E80000024007800F01F018D404009800000F1FF
:103E9000E020C0F8005130BD01F01F008540480906
:103EA000800000F1E020C0F8805130BD0CED00E052
:103EB0000249084302490860704700000000FA0503
:103EC0000CED00E010B40021084B0A46002003EB83
:103ED000C004401CC0B262548028F8D3491CC9B247
:103EE0000829F3D310BC00F0F1B8000070040020E2
:103EF0002DE9F0471F4690460E4682460025DDF824
:103F0000209011E03146504600F028F9544607E071
:103F100019F8050001216D1C00F0ECF9641CE4B2F5
:103F20004445F5D3761CF6B2BE42EBD3BDE8F0872C
:103F300010B57F2816D83F2914D80723A3EBD10347
:103F400001F00701C1F107040121A140064CDBB2D9
:103F500004EBC000002AC25CC9B201D00A4300E0F1
:103F60008A43C25410BD000070040020F0B516460C
:103F70000D4607460024FFF7DBFF32462946384648
:103F8000FFF7D6FF2819C1B232463846FFF7D0FFF7
:103F9000641CE4B2082CF5D3F0BD00007CB501210F
:103FA000082000F03BFD01268DF8046000244FF44A
:103FB000F0408DF8064000908DF805408DF80740E0
:103FC00069464048FEF77AF80121080700F04AFDEB
:103FD000012000F01DFD002000F0B0FD002000F0E9
:103FE00017FD394DC5F8B042642005F52C7506F073
:103FF0001BFB2E600021AE2000F07CF90021D520B3
:1040000000F078F90021502000F074F90021A82078
:1040100000F070F900213F2000F06CF90021D3205E
:1040200000F068F90021084600F064F90021402002
:1040300000F060F900218D2000F05CF900211420CF
:1040400000F058F90021202000F054F9002102204E
:1040500000F050F90021A12000F04CF90021C0200F
:1040600000F048F90021DA2000F044F90021122084
:1040700000F040F90021812000F03CF90021EF2000
:1040800000F038F90021D92000F034F90021F120A6
:1040900000F030F90021DB2000F02CF90021302065
:1040A00000F028F90021A42000F024F90021A62026
:1040B00000F020F90021AF2000F01CF9FFF702FF0B
:1040C0007CBD0000000C02400080414270B5104EE3
:1040D000002505F1B000C0B2002100F00BF900216D
:1040E000084600F007F90021102000F003F9002431
:1040F00006EBC4000121405D00F0FCF8641CE4B252
:10410000802CF5D36D1CEDB2082DE2D370BD0000FC
:104110007004002070B5104E002505F1B000C0B24B
:10412000002100F0E7F80021084600F0E3F8002144
:10413000102000F0DFF8002406EBC4000121405DF0
:1041400000F0D8F8641CE4B2802CF5D36D1CEDB2FD
:10415000022DE2D370BD00007004002010B50446AB
:10416000B031C8B2002100F0C5F8102040EA1410A8
:10417000002100F0BFF804F00F00BDE8104000215E
:1041800000F0B8B82DE9F04F203A98460D46834626
:10419000894602F0FF0A00262EE0B8F10C0F08D085
:1041A000174901EB0A100027845D200607D5099AFC
:1041B00008E014490AEB4A0001EB8000F3E7099894
:1041C00090B1002229465846FFF7B2FE6D1C6006EA
:1041D000EDB2040EA5EB0901414507D10BF1010039
:1041E0004D4600F0FF0B05E00122EBE77F1CFFB21C
:1041F000082FDAD3761CF6B24645CED3BDE8F08F51
:10420000D8DE000864DA00082DE9FF4F81B00027EE
:10421000DDF838B01D46924680463C464FF0010915
:104220004FEA5B0627E0281B401EC1B20A2006F0B9
:1042300023FBBAFBF0F00A21B0FBF1F201FB120004
:1042400027B9691E8C4201DA48B101273030C2B269
:1042500006FB0480C0B25B46CDF8009006E006FB8A
:104260000480C0B25B462022CDF800900299FFF78F
:1042700089FF641CE4B2AC42D5D305B0BDE8F08F31
:10428000F8B516460D460446012714E07A2C02D9EB
:1042900000241035EDB23A2D03D900242546FFF74E
:1042A00011FE009732780C2329462046FFF76AFF5B
:1042B0000834E4B2761C30780028E7D1F8BD00005D
:1042C00070B50A4D0A4E002435F814003188884232
:1042D00001D2012200E0002200212046FFF746FE25
:1042E000641CE4B2802CEFD370BD00006403002096
:1042F0002800002030B500230E4A012411B1C2F875
:10430000AC4201E0C2F8AC320021C2F8B832050676
:1043100002D5C2F8B44201E0C2F8B432C2F8B842E1
:104320004006491C000EC9B20829EED3C2F8AC42BF
:1043300030BD0000008041420148FEF79FBB0000F5
:1043400074820020104900209FED100A0870104967
:1043500081ED000A0F4981ED000A0F4981ED000A45
:104360000E4981ED000A0E499FED0E0A08700E48B5
:1043700080ED000A0D4880ED000A0D4880ED000A2E
:104380000C4880ED000A70477000002000000043D8
:10439000F0010020F4010020F8010020FC010020C1
:1043A0000902002000000000180200201C0200206A
:1043B00020020020140200200149012008707047EB
:1043C000700000200020044A01461154401CC0B275
:1043D0000928FAD370470000700800202DE9F8433F
:1043E00001250746ADF800501B4800264670ADF881
:1043F00000501A4C80464FF6FF7924E0BDF80000CB
:10440000384202D0C4F8B05201E0C4F8B062C4F837
:10441000A052052006F024F9C4F8A062052006F099
:104420001FF9C4F8A052D4F83C0230B198F801103A
:10443000BDF80020114388F80110BDF8001009EA0A
:104440004100ADF80000BDF80000FF28D6D9BDE856
:10445000F843102006F004B9700800200000424222
:104460002DE9F0416348644D644E0078644B0128A7
:104470007DD16448D0ED000A9FED630A63486FF078
:10448000130470EE600AFDEEE00A10EE901AD0ED13
:10449000000A5F4870EE600AFDEEE00A10EE902A16
:1044A000D0ED000AA24230EE600ABDEEC00A10EE66
:1044B000100A02DD142A00DA0022A14202DD1429CA
:1044C00000DA0021A04202DD142800DA0020DFF823
:1044D00044C1514F9CF80440641CE4B28CF8044081
:1044E0000F2C18D100248CF804404C4CBE46DFF849
:1044F00030C124689EED000AF1EE040A644502D141
:1045000030EE200A05E0DFF81CC1644503D130EE2F
:10451000600A87ED000A97ED000AB5EEC00AF1EED9
:1045200010FA03D29FED400A87ED000A00EE102A30
:1045300001EE901AD7ED000AB8EEC00AF8EEE11AC3
:1045400002EE100ADFED3A2A20EE201A9FED370A1C
:1045500061EEA01AB8EEC22A21EE001A61EE801AAE
:1045600085ED001A22EE222AC6ED001A00E037E09F
:1045700022EE000A2F489FED302A83ED000A0078D2
:10458000F0B101281CD0022806D003280FD005283E
:104590000DD004280BD019E0F0EE000A20EE200A1E
:1045A000F2EE020A80EE202A83ED002A0EE0B5EE3C
:1045B000C01AF1EE10FA03D2B1EE400A83ED000A00
:1045C00020EE200AC0EE020AC3ED000A9FED1B0A8E
:1045D000C1EE000AC5ED000AC1EE800AC6ED000A70
:1045E00093ED001AD6ED000A95ED000ABDE8F04102
:1045F000FDF740B809020020180200201C0200202C
:1046000020020020F001002000000043F4010020FF
:10461000F801002040020020BC010020140200200C
:104620000000304100001041000000000000003C8C
:10463000DB0FC93FB90100200000FA4300007A44B3
:1046400070B5FFF7BFFE00F031F90B480B4AB0F828
:1046500003400A48103284800020012512F81030EF
:1046600000F101005B1E05FA03F12142C0B202D045
:104670001028F3D3002070BD7008002070000020C7
:1046800010B5154C0020C4F8A802102004F52A74B7
:1046900005F0E6FF0120FFF7A1FE4320FFF79EFE95
:1046A0000020FFF79BFE0120FFF798FE0020FFF798
:1046B00095FE0020FFF792FE0020FFF78FFE0020FE
:1046C000FFF78CFE0020FFF789FE01202060BDE887
:1046D0001040102005F0C4BF0000424210B5154C38
:1046E0000020C4F8A802102004F52A7405F0B8FFD1
:1046F0000120FFF773FE4320FFF770FE0020FFF755
:104700006DFE0020FFF76AFE5A20FFF767FE5A2071
:10471000FFF764FE5A20FFF761FE5A20FFF75EFEA6
:104720005A20FFF75BFE01202060BDE810401020FA
:1047300005F096BF000042427CB50121102000F038
:104740006DF94FF40040002400908DF804400320E0
:104750008DF805000C4E02258DF80750694630464D
:10476000FDF7ACFC01218DF804108DF806404FF4E4
:10477000A8508DF8055000908DF807106946304616
:10478000FDF79CFC7CBD0000001002402DE9F041CB
:10479000FFF756FF00EE100A37493848B8EE400AD6
:1047A000374E394F81ED000AC279002500EE902A7C
:1047B000F8EE600AC6ED000A027AF5EEC00A01EED4
:1047C000102A304AB8EE411A82ED001A437901EE00
:1047D000903A2E4BF8EE611AC7ED001A807902EE7E
:1047E000100A2B48B8EE422AF1EE10FA83ED002AA7
:1047F00022D1B5EEC01AF1EE10FA1DD1F5EEC01AB5
:10480000F1EE10FA18D1B5EEC02AF1EE10FA13D17C
:1048100010EE104AB4F17E5F0ED19FED1E0A87EDB7
:10482000000A83ED000A86ED000A82ED000A9FED82
:104830001A0A81ED000A057010EE104A174B01218B
:10484000B4F1814F01D104789CB19B68002B0ED04C
:104850001268134B9A420ADA0278002A07D1114AE9
:104860005268B2F57A7F02DB01700F480570BDE82F
:10487000F0819960ECE7000014020020700800202D
:10488000F0010020F4010020F8010020FC010020CC
:10489000090200200000004300000000700000201A
:1048A0000000EC4240820020080200202DE9FC417B
:1048B00000268DF800600125ADF80450224CC4F8A4
:1048C000A862224F3878FFF789FD7878FFF786FDD8
:1048D00002208DF800001E4F4FF6FF782CE0ADF857
:1048E00004501DE0C4F8A052052005F0B9FEC4F83C
:1048F000A062052005F0B4FEC4F8A052D4F83C0232
:1049000040B19DF80000BDF80410385C08439DF8E4
:1049100000107854BDF8041008EA4100ADF8040016
:10492000BDF80400FF28DDD9102005F099FE9DF8A0
:104930000000401C8DF800009DF800000928CED32F
:10494000C4F8A852BDE8FC8100004242710000207A
:104950007008002010B500F00DF800F00BF800F022
:1049600009F8FFF78DFE00F027F8BDE81040FFF7CB
:10497000B5BE000010B50F4C0020C4F8A8021020EE
:1049800004F52A7405F06CFE0120FFF727FD422094
:10499000FFF724FD0020FFF721FD0020FFF71EFD9B
:1049A0000020FFF71BFD01202060BDE81040102013
:1049B00005F056BE0000424210B5144C0020C4F869
:1049C000A802012004F52A74FFF708FD4420FFF730
:1049D00005FD0020FFF702FD0120FFF7FFFC03208B
:1049E000FFF7FCFC0020FFF7F9FC0020FFF7F6FCC6
:1049F0000020FFF7F3FC0020FFF7F0FC012020600F
:104A0000BDE81040102005F02BBE0000000042421F
:104A1000014908627047000000000E42044A002964
:104A2000116801D0014300E081431160704700002C
:104A300030380240044A0029116801D0014300E0E7
:104A4000814311607047000034380240044A002955
:104A5000116801D0014300E08143116070470000FC
:104A600014380240044A0029116801D0014300E0D3
:104A7000814311607047000040380240044A002919
:104A8000116801D0014300E08143116070470000CC
:104A900044380240044A0029116801D0014300E073
:104AA00081431160704700002438024070B5204BEC
:104AB0001968204C11F00C0104D06610042903D0B1
:104AC000082903D004601BE0066019E0184A121F91
:104AD0001168C1F38055116801F03F0115B1B6FBB3
:104AE000F1F101E0B4FBF1F114681268C4F3881429
:104AF0006143C2F30142521C5200B1FBF2F101606A
:104B000019680F2202EA11110B4A545C0168E14056
:104B100041601C68072505EA9424145D21FA04F419
:104B200084601B6805EA5333D25CD140C16070BD1C
:104B3000083802400024F400340100200549002216
:104B40000A700A70012802D0042801D105200870DB
:104B500070470000703802402DE9F04F0025DFF863
:104B6000F8B0DFF8F8A04FF4E1792C462B462E463A
:104B700029464FF0937E0AEBC10C9CED010A10EE22
:104B800010CADC44F44530D93AF831706FB34F4560
:104B90002BDA10EE10CADFF8C0806D1CC8F10008D7
:104BA000ADB2C4450ADA00EE903AF8EEE00A30EE13
:104BB000200ABDEEC00A10EE103A13E010EE10CA43
:104BC000DFF89C80C4450DDDDFED260A70EE600A3B
:104BD00000EE104AB8EEC00A30EE800ABDEEC00A00
:104BE00010EE104AFA2F00D2761C491CB1F5906FD6
:104BF000C1DB90ED000AB5EEC00AF1EE10FA20DD3F
:104C0000082D1ED9082E08DBFEEE080A20EE200A29
:104C100080ED000A9FED140A11E0F6EE000A134938
:104C200020EE200A23440978002B80ED000A0ADDDB
:104C3000022902D0B7EE000A01E09FED0D0A82EDD5
:104C4000000ABDE8F08F022902D0BFEE000AF6E7A5
:104C50009FED080AF3E70000000090BD180900204E
:104C6000000096430000B44300000000B90100209A
:104C7000C3B8323FC3B832BF2DE9F04700251B4E01
:104C80002C462946C6F89452194AC2F8905202F5A9
:104C9000247206F52576FCF7E7FC01271760FCF780
:104CA000E3FC3160FCF7E0FC3760A6F52576FCF705
:104CB000DBFC1160FCF7D8FCDFF838908846C6F8BA
:104CC0009482FCF7D1FC0420FDF748FA010929F889
:104CD0001410641CE4B2C6F89472FCF7C5FC6D1C99
:104CE000EDB2802DEBD3BDE8F0870000000040421C
:104CF00000004142640300200021022807D003285D
:104D00000BD004280BD005280BD0002070474FF0A3
:104D10008042506A516200B27047044A02E0044A7D
:104D200000E0044A1068116000B27047240400409B
:104D300024080040240C004010B551EC100B2DED60
:104D4000068BB0EE439AF0EE629AB0EE42AAF0EE15
:104D5000618AB0EE418AFBF76EFCBDEECA0A1549C6
:104D600010EE102ABDEEE90A086081ED018A10EE0E
:104D7000103AC1ED058AC1E9022381ED049A990038
:104D8000514300EE101A0C49B8EEC00A81ED000A3A
:104D90009FED0A0A0A4929EE000A81ED000A094935
:104DA0000860094880ED008A0848C0ED008ABDEC23
:104DB000068B10BD5C82002024020020DB0F4940DE
:104DC000280200202C0200203002002034020020A3
:104DD00010B5324C40F205100A2120600920FDF781
:104DE00029FD216890FBF1F02D49C0B2052808701B
:104DF00001D905200870C0B29FED2A1A9FED2A3A0A
:104E0000062849D2DFE800F003101B262F3AF0EE07
:104E1000411A9FED263AF2EE0A2AB3EE0E2A9FEDD2
:104E2000241A9FED240B33E09FED243AF2EE0A2A78
:104E3000B3EE0E2ADFED221A9FED220B28E0F0EEF2
:104E4000411AF2EE0A2AB3EE0E2A9FED201A9FEDC8
:104E5000200B1DE0F2EE0A2AB3EE0E2AF0EE411A04
:104E60009FED1D0B14E0F0EE411AF2EE0A2AB3EEAC
:104E70000E2A9FED1B1A9FED1B0B09E09FED1B3ABD
:104E80009FED1B0BF2EE0A2AB3EE0E2AF0EE411A4A
:104E9000BDE81040FFF750BF10BD00000C0200201D
:104EA000B901002000000000B81E853D9A99993D87
:104EB0007B14AE3D022B8716D9CEB73F8FC2753D0E
:104EC000643BDF3D0000000000000000BC74133EA6
:104ED000000000806ABCC43F000000A0EFA7C63FEE
:104EE000E926313E000000C09DEFC73FC520303DA0
:104EF000000000E07A14CE3F0121417000220270D0
:104F00004260027241724181704700000CB500227C
:104F1000274900920192086840F4803008604FF4FD
:104F2000A043086800F4003001900098401C0090F5
:104F3000019810B900989842F3D10868800334D5DD
:104F4000012001901A484030026842F0805202600D
:104F50001848026842F4404202601548083002686E
:104F60000260026842F400420260026842F4A05209
:104F70000260031F104A1A600A6842F080720A60D9
:104F80000A689201FCD50D4940F205720A60016879
:104F900021F003010160016841F002010160016834
:104FA000C1F381010229FAD10CBD01920CBD0000B0
:104FB000003802400070004008544007003C0240A6
:104FC000F0B5174E174F059D44F29F14002803DAE1
:104FD00034602044386002E03C60201A306012489F
:104FE000002903DA44632144816302E08463611A87
:104FF00041630E48002A03DA44631119816302E019
:105000008463A11A4163002B03DA04641919C16394
:1050100002E0C463E11A016405480560F0BD0000C8
:105020003448014034440140004001400000014048
:105030004004014000B5B0EE412AF0EE602AB0EE27
:10504000401A9FED4C0A4C48007808B19FED4B0A7E
:105050004B48D0ED001ADFED4B0AB5EEC01AF1EE69
:1050600010FA02DD71EE801A0EE0B5EEC01AF1EE14
:1050700010FA02D271EEC01A06E0B5EEC01AF1EED7
:1050800010FA03D161EEA01AC0ED001A3C49F5EE0A
:10509000C02AD1ED011AF1EE10FA02DD71EE801A8C
:1050A0000EE0F5EEC02AF1EE10FA02D271EEC01A4F
:1050B00006E0F5EEC02AF1EE10FA03D161EEA01A77
:1050C000C0ED011A2E49B5EEC02AD1ED021AF1EE5B
:1050D00010FA02DD31EE800A0EE0B5EEC02AF1EEE4
:1050E00010FA02D231EEC00A06E0B5EEC02AF1EEA7
:1050F00010FA03D121EEA00A80ED020AB0EE410AB7
:1051000005F0F8FAF0EE400AB0EE410A05F0F2FAC6
:10511000F1EE401AB0EE601A90ED000AF0EE610A6E
:1051200007F054F980ED000AB0EE620A05F0E2FAE9
:10513000B0EE401AB0EE620A05F0DCFAF1EE400A79
:1051400090ED010A07F042F980ED010AB0EE420A43
:1051500005F0D0FAB0EE401AB0EE420A05F0CAFAF5
:10516000F1EE400A90ED020A07F030F980ED020AF4
:1051700000BD00000AD7233C09020020CDCC4C3DE5
:10518000E48100206666663F4FF0E021042808694C
:1051900003D020F004000861704740F00400FAE7F3
:1051A00010B508F003FA012803D0BDE8104007F05D
:1051B00097BE10BD124810B5016841F4700101603E
:1051C0001048016841F0010101600E4A00210832D7
:1051D000116002680C4B1A400260031D0B4A1A60F2
:1051E000026822F48022026006480C300160FFF75A
:1051F0008DFE03494FF000608039086010BD00004B
:1052000088ED00E000380240FFFFF6FE1030002479
:1052100070B5048C24F001040484058B048C4FF6D3
:10522000FF7606EA0313134325F0F3052B4324F01E
:105230000A020A4342F001010383018470BDF0B504
:10524000048C24F010040484078B068C4FF6FF7442
:1052500004EA011527F4734704EA0331394304EAE9
:1052600002220A4326F0A001294341F010010283E3
:105270000184F0BD2DE9F041884607468AB001213E
:105280000220FFF7CBFB01214804FFF7F7FB1F4E7D
:10529000032208213046FCF74DFF02208DF8040060
:1052A0000024C0018DF80640012500908DF80750BC
:1052B00003208DF8050069463046FCF7FFFE144ECA
:1052C000ADF808800397ADF81040ADF80A4002A988
:1052D000304600F09DFB6020ADF81400ADF816508C
:1052E000ADF8204005A9304600F06AFA08213046A2
:1052F00000F096FA0121304600F0C0F90121304655
:1053000000F0C9F90AB0BDE8F081000000040240D5
:10531000004401402DE9F041884607468AB001214A
:105320000220FFF77BFB01218804FFF7A7FB214E3A
:10533000032209213046FCF7FDFE02208DF804000F
:10534000002400028DF80640012500908DF80750DA
:1053500003208DF8050069463046FCF7AFFE164E77
:10536000ADF808800397ADF81040ADF80A4002A9E7
:10537000304600F04DFB6020ADF81400ADF816503B
:10538000ADF8204005A9304600F01AFA0821304651
:1053900000F046FA0121304600F087F9012130463D
:1053A00000F06CF90121304600F075F90AB0BDE853
:1053B000F081000000040240004801402DE9F04166
:1053C0008846074601218AB00846FFF757FB0121AE
:1053D0001020FFF723FB354E012209213046FCF750
:1053E000A9FE01220B213046FCF7A4FE01220D216B
:1053F0003046FCF79FFE01220E213046FCF79AFE54
:105400004FF4D440059002208DF8180003208DF849
:10541000190000248DF81A4001258DF81B5005A9AC
:105420003046FCF74BFE224EADF81C800897ADF8D5
:105430002450ADF81E4007A9304600F0E9FA60207C
:10544000ADF80000ADF80250ADF80C4069463046AA
:1054500000F0B6F96946304600F0E8F96946304692
:1054600000F02EFA6946304600F06EFA012130460F
:1054700000F01BF90821304600F0D2F9082130462F
:1054800000F014FA0821304600F058FA082130469E
:1054900000F08AFA0121304600F0F0F80121304690
:1054A00000F0F9F80AB0BDE8F081000000100240F9
:1054B000000001404FF08040018A018A21F0010183
:1054C0000182704703480188018821F001010180B1
:1054D000704700001004004003480188018821F053
:1054E0000101018070470000100800400348018856
:1054F000018821F00101018070470000100C00407C
:1055000003480188018821F00101018070470000F3
:10551000101800402DE9F041884606468AB0012166
:105520000220FFF7ABFA01210420FFF777FA0220EF
:105530008DF818000002059003208DF81900002452
:105540001E4F8DF81A4001258DF81B5005A93846CD
:10555000FCF7B4FD032209213846FCF7EBFD089661
:10556000174EADF81C80ADF82440ADF81E4007A9D9
:10557000304600F04DFA6020ADF80000ADF8025062
:105580000294ADF80C40ADF810406946304600F08A
:10559000DBF90821304600F007FA002210213046DE
:1055A00000F005F90121304600F07FF80121304676
:1055B00000F071F80AB0BDE8F08100000008024078
:1055C000000401402DE9F0438946804601218BB05B
:1055D0000804FFF753FA01211020FFF71FFA254FA7
:1055E000032205213846FCF7A5FD03220621384693
:1055F000FCF7A0FD02208DF8180003208DF819009B
:10560000002460268DF81A40012505968DF81B5060
:1056100005A93846FCF752FD174FADF81C90CDF8A0
:105620002080ADF82440ADF81E4007A9384600F0B0
:10563000EFF9ADF80060ADF80250ADF80C406946E6
:10564000384600F0BDF86946384600F0EFF808210A
:10565000384600F0E5F80821384600F027F9012126
:10566000384600F00BF80121384600F014F80BB072
:10567000BDE8F0830010024000400140002901888D
:1056800002D041F0800101E021F0800101807047EB
:10569000C943018270470029018802D041F001010D
:1056A00001E021F0010101807047002930F8441F1A
:1056B00002D041F4004101E0C1F30E0101807047C6
:1056C00070B50589048B068C25F007050D434FF650
:1056D000FC410C4040F201110C434FF6FF7101EA0E
:1056E000031126F02206114331430581048301840E
:1056F00070BD2DE9F0410C460E884988A2882389A7
:10570000054616B3042E28D0082E2E8C4FF6FF70B7
:105710002BD026F480562E84AF8B2E8C00EA0222EA
:1057200000EA013127F473473A4300EA033010439B
:1057300026F420420A4342F48051A8832984E18858
:105740002846BDE8F04100F057B9FFF761FDE18858
:105750002846BDE8F04100F033B9FFF770FDE1885D
:105760002846BDE8F04100F033B926F480762E8457
:10577000AF8B2E8C00EA012100EA0310104327F0C2
:10578000F307384326F420620A4342F48071A88369
:105790002984E1882846BDE8F04100F025B90021C0
:1057A0000180418001228280C18001817047002AEE
:1057B000828901D00A4300E08A4382817047000059
:1057C00030B5028C22F001020284028C8388048BA3
:1057D00022F0020224F073050C882C438D891543B6
:1057E0004A882A430C4DA84202D00C4DA8420DD144
:1057F00022F00805CA8923F440732A4322F00405E5
:105800008A882A430D8A1D434B8A2B438380048355
:1058100089684163028430BD0000014000040140FA
:10582000028B22F008020A430283704770B5028C93
:1058300022F010020284028C8388048B0D8824F4E9
:10584000E6464FF6FF7404EA052535438E8922F0BB
:10585000200204EA061616434A8804EA021232437A
:10586000104EB04202D0104EB04215D122F0800648
:10587000CA8923F4406304EA0212324322F040064C
:105880008A8804EA021232430E8A04EA86061E431C
:105890004B8A04EA830333438380058389688163E9
:1058A000028470BD0000014000040140028B4FF6ED
:1058B000FF7322F4006203EA012111430183704760
:1058C00070B5028C22F480720284028C8388848BEF
:1058D0000D8824F0730425438E894FF6FF7422F45B
:1058E000007204EA062616434A8804EA022232437A
:1058F000104EB04202D0104EB04215D122F40066D4
:10590000CA8923F4405304EA0222324322F4806617
:105910008A8804EA022232430E8A04EA06161E43EB
:105920004B8A04EA03133343838085838968C16308
:10593000028470BD0000014000040140828B22F00F
:1059400008020A438283704770B5028C22F48052A9
:105950000284058C8288838B0C8823F4E6464FF6FC
:10596000FF7303EA0424344325F400568D8903EAC7
:10597000053535434E8803EA06362E43084DA842C6
:1059800002D0084DA84205D122F480450A8A03EAD4
:1059900082122A438280848389680164068470BDF0
:1059A0000000014000040140828B4FF6FF7322F497
:1059B000006203EA0121114381837047416270470D
:1059C000028B22F00C020283028B0A43028370478F
:1059D000028B22F440620283028B4FF6FF7303EACC
:1059E00001210A4302837047828B22F00C028283DA
:1059F000828B0A4382837047828B22F440628283C7
:105A0000828B4FF6FF7303EA01210A4382837047BA
:105A100030B50288164C174DA0420DD0A8420BD0CD
:105A2000B0F1804F08D0144B984205D0134B9842E8
:105A300002D0134B984203D122F070034A881A43D4
:105A4000104B984206D0104B984203D022F440737A
:105A50000A891A4302804A68C2620A880285A04203
:105A600001D0A84201D1897A01860121818230BD0D
:105A70000000014000040140000400400008004014
:105A8000000C004000100040001400404FF0FF31B7
:105A900041600021018001814180817270470000D6
:105AA0000A2809DB0C48D0F80C0228B10B48007812
:105AB000012801D000207047094A0120002111600F
:105AC000084A1160084A51639163084A91639163DF
:105AD0001164D1637047000000804142B80100208A
